{
  "contractName": "PembayaranKRS",
  "abi": [
    {
      "inputs": [],
      "stateMutability": "nonpayable",
      "type": "constructor"
    },
    {
      "anonymous": false,
      "inputs": [
        {
          "indexed": true,
          "internalType": "string",
          "name": "nim",
          "type": "string"
        },
        {
          "indexed": false,
          "internalType": "uint256",
          "name": "jumlah",
          "type": "uint256"
        }
      ],
      "name": "PembayaranBerhasil",
      "type": "event"
    },
    {
      "anonymous": false,
      "inputs": [
        {
          "indexed": true,
          "internalType": "string",
          "name": "nim",
          "type": "string"
        },
        {
          "indexed": false,
          "internalType": "bool",
          "name": "lunas",
          "type": "bool"
        }
      ],
      "name": "StatusLunas",
      "type": "event"
    },
    {
      "inputs": [],
      "name": "admin",
      "outputs": [
        {
          "internalType": "address",
          "name": "",
          "type": "address"
        }
      ],
      "stateMutability": "view",
      "type": "function",
      "constant": true
    },
    {
      "inputs": [
        {
          "internalType": "string",
          "name": "",
          "type": "string"
        }
      ],
      "name": "pembayaranMahasiswa",
      "outputs": [
        {
          "internalType": "string",
          "name": "namaMahasiswa",
          "type": "string"
        },
        {
          "internalType": "string",
          "name": "nim",
          "type": "string"
        },
        {
          "internalType": "uint256",
          "name": "jumlah",
          "type": "uint256"
        },
        {
          "internalType": "bool",
          "name": "lunas",
          "type": "bool"
        }
      ],
      "stateMutability": "view",
      "type": "function",
      "constant": true
    },
    {
      "stateMutability": "payable",
      "type": "receive",
      "payable": true
    },
    {
      "inputs": [
        {
          "internalType": "string",
          "name": "_nama",
          "type": "string"
        },
        {
          "internalType": "string",
          "name": "_nim",
          "type": "string"
        }
      ],
      "name": "bayarKRS",
      "outputs": [],
      "stateMutability": "payable",
      "type": "function",
      "payable": true
    },
    {
      "inputs": [
        {
          "internalType": "string",
          "name": "_nim",
          "type": "string"
        }
      ],
      "name": "cekStatusPembayaran",
      "outputs": [
        {
          "internalType": "bool",
          "name": "",
          "type": "bool"
        }
      ],
      "stateMutability": "view",
      "type": "function",
      "constant": true
    },
    {
      "inputs": [],
      "name": "tarikDana",
      "outputs": [],
      "stateMutability": "nonpayable",
      "type": "function"
    }
  ],
  "bytecode": "0x608060405234801561001057600080fd5b5033600160006101000a81548173ffffffffffffffffffffffffffffffffffffffff021916908373ffffffffffffffffffffffffffffffffffffffff160217905550610e0d806100616000396000f3fe60806040526004361061004e5760003560e01c80632ca0d7a41461005a5780638f9c4b711461009a57806397ae7ef6146100b6578063af14c873146100cd578063f851a4401461010a57610055565b3661005557005b600080fd5b34801561006657600080fd5b50610081600480360381019061007c91906106bd565b610135565b60405161009194939291906107b9565b60405180910390f35b6100b460048036038101906100af919061080c565b610298565b005b3480156100c257600080fd5b506100cb61040b565b005b3480156100d957600080fd5b506100f460048036038101906100ef91906106bd565b610506565b6040516101019190610884565b60405180910390f35b34801561011657600080fd5b5061011f61053d565b60405161012c91906108e0565b60405180910390f35b60008180516020810182018051848252602083016020850120818352809550505050505060009150905080600001805461016e9061092a565b80601f016020809104026020016040519081016040528092919081815260200182805461019a9061092a565b80156101e75780601f106101bc576101008083540402835291602001916101e7565b820191906000526020600020905b8154815290600101906020018083116101ca57829003601f168201915b5050505050908060010180546101fc9061092a565b80601f01602080910402602001604051908101604052809291908181526020018280546102289061092a565b80156102755780601f1061024a57610100808354040283529160200191610275565b820191906000526020600020905b81548152906001019060200180831161025857829003601f168201915b5050505050908060020154908060030160009054906101000a900460ff16905084565b600034116102db576040517f08c379a00000000000000000000000000000000000000000000000000000000081526004016102d2906109cd565b60405180910390fd5b600081511161031f576040517f08c379a000000000000000000000000000000000000000000000000000000000815260040161031690610a39565b60405180910390fd5b6040518060800160405280838152602001828152602001348152602001600115158152506000826040516103539190610a95565b908152602001604051809103902060008201518160000190816103769190610c58565b50602082015181600101908161038c9190610c58565b506040820151816002015560608201518160030160006101000a81548160ff021916908315150217905550905050806040516103c89190610a95565b60405180910390207f4b009615cc2569ff9d9a83978baaff5aa163669a5d7cd1c6c60344e4f22c4b69346040516103ff9190610d2a565b60405180910390a25050565b600160009054906101000a900473ffffffffffffffffffffffffffffffffffffffff1673ffffffffffffffffffffffffffffffffffffffff163373ffffffffffffffffffffffffffffffffffffffff161461049b576040517f08c379a000000000000000000000000000000000000000000000000000000000815260040161049290610db7565b60405180910390fd5b600160009054906101000a900473ffffffffffffffffffffffffffffffffffffffff1673ffffffffffffffffffffffffffffffffffffffff166108fc479081150290604051600060405180830381858888f19350505050158015610503573d6000803e3d6000fd5b50565b600080826040516105179190610a95565b908152602001604051809103902060030160009054906101000a900460ff169050919050565b600160009054906101000a900473ffffffffffffffffffffffffffffffffffffffff1681565b6000604051905090565b600080fd5b600080fd5b600080fd5b600080fd5b6000601f19601f8301169050919050565b7f4e487b7100000000000000000000000000000000000000000000000000000000600052604160045260246000fd5b6105ca82610581565b810181811067ffffffffffffffff821117156105e9576105e8610592565b5b80604052505050565b60006105fc610563565b905061060882826105c1565b919050565b600067ffffffffffffffff82111561062857610627610592565b5b61063182610581565b9050602081019050919050565b82818337600083830152505050565b600061066061065b8461060d565b6105f2565b90508281526020810184848401111561067c5761067b61057c565b5b61068784828561063e565b509392505050565b600082601f8301126106a4576106a3610577565b5b81356106b484826020860161064d565b91505092915050565b6000602082840312156106d3576106d261056d565b5b600082013567ffffffffffffffff8111156106f1576106f0610572565b5b6106fd8482850161068f565b91505092915050565b600081519050919050565b600082825260208201905092915050565b60005b83811015610740578082015181840152602081019050610725565b60008484015250505050565b600061075782610706565b6107618185610711565b9350610771818560208601610722565b61077a81610581565b840191505092915050565b6000819050919050565b61079881610785565b82525050565b60008115159050919050565b6107b38161079e565b82525050565b600060808201905081810360008301526107d3818761074c565b905081810360208301526107e7818661074c565b90506107f6604083018561078f565b61080360608301846107aa565b95945050505050565b600080604083850312156108235761082261056d565b5b600083013567ffffffffffffffff81111561084157610840610572565b5b61084d8582860161068f565b925050602083013567ffffffffffffffff81111561086e5761086d610572565b5b61087a8582860161068f565b9150509250929050565b600060208201905061089960008301846107aa565b92915050565b600073ffffffffffffffffffffffffffffffffffffffff82169050919050565b60006108ca8261089f565b9050919050565b6108da816108bf565b82525050565b60006020820190506108f560008301846108d1565b92915050565b7f4e487b7100000000000000000000000000000000000000000000000000000000600052602260045260246000fd5b6000600282049050600182168061094257607f821691505b602082108103610955576109546108fb565b5b50919050565b7f4a756d6c61682070656d6261796172616e206861727573206c6562696820646160008201527f7269203000000000000000000000000000000000000000000000000000000000602082015250565b60006109b7602483610711565b91506109c28261095b565b604082019050919050565b600060208201905081810360008301526109e6816109aa565b9050919050565b7f4e494d2068617275732064696973690000000000000000000000000000000000600082015250565b6000610a23600f83610711565b9150610a2e826109ed565b602082019050919050565b60006020820190508181036000830152610a5281610a16565b9050919050565b600081905092915050565b6000610a6f82610706565b610a798185610a59565b9350610a89818560208601610722565b80840191505092915050565b6000610aa18284610a64565b915081905092915050565b60008190508160005260206000209050919050565b60006020601f8301049050919050565b600082821b905092915050565b600060088302610b0e7fffffffffffffffffffffffffffffffffffffffffffffffffffffffffffffffff82610ad1565b610b188683610ad1565b95508019841693508086168417925050509392505050565b6000819050919050565b6000610b55610b50610b4b84610785565b610b30565b610785565b9050919050565b6000819050919050565b610b6f83610b3a565b610b83610b7b82610b5c565b848454610ade565b825550505050565b600090565b610b98610b8b565b610ba3818484610b66565b505050565b5b81811015610bc757610bbc600082610b90565b600181019050610ba9565b5050565b601f821115610c0c57610bdd81610aac565b610be684610ac1565b81016020851015610bf5578190505b610c09610c0185610ac1565b830182610ba8565b50505b505050565b600082821c905092915050565b6000610c2f60001984600802610c11565b1980831691505092915050565b6000610c488383610c1e565b9150826002028217905092915050565b610c6182610706565b67ffffffffffffffff811115610c7a57610c79610592565b5b610c84825461092a565b610c8f828285610bcb565b600060209050601f831160018114610cc25760008415610cb0578287015190505b610cba8582610c3c565b865550610d22565b601f198416610cd086610aac565b60005b82811015610cf857848901518255600182019150602085019450602081019050610cd3565b86831015610d155784890151610d11601f891682610c1e565b8355505b6001600288020188555050505b505050505050565b6000602082019050610d3f600083018461078f565b92915050565b7f48616e79612061646d696e2079616e67206461706174206d656c616b756b616e60008201527f20696e6900000000000000000000000000000000000000000000000000000000602082015250565b6000610da1602483610711565b9150610dac82610d45565b604082019050919050565b60006020820190508181036000830152610dd081610d94565b905091905056fea26469706673582212206fee040f5ba60e487a47ff39a788ca0e9923441bee0d1c70b67e5d39b235cfb064736f6c63430008130033",
  "immutableReferences": {},
  "source": "// SPDX-License-Identifier: MIT\r\npragma solidity ^0.8.0;\r\n\r\ncontract PembayaranKRS {\r\n    struct Pembayaran {\r\n        string namaMahasiswa;\r\n        string nim;\r\n        uint256 jumlah;\r\n        bool lunas;\r\n    }\r\n\r\n    mapping(string => Pembayaran) public pembayaranMahasiswa;\r\n    address public admin;\r\n    \r\n    event PembayaranBerhasil(string indexed nim, uint256 jumlah);\r\n    event StatusLunas(string indexed nim, bool lunas);\r\n\r\n    modifier onlyAdmin() {\r\n        require(msg.sender == admin, \"Hanya admin yang dapat melakukan ini\");\r\n        _;\r\n    }\r\n\r\n    constructor() {\r\n        admin = msg.sender;\r\n    }\r\n\r\n    function bayarKRS(string memory _nama, string memory _nim) public payable {\r\n        require(msg.value > 0, \"Jumlah pembayaran harus lebih dari 0\");\r\n        require(bytes(_nim).length > 0, \"NIM harus diisi\");\r\n        \r\n        pembayaranMahasiswa[_nim] = Pembayaran({\r\n            namaMahasiswa: _nama,\r\n            nim: _nim,\r\n            jumlah: msg.value,\r\n            lunas: true\r\n        });\r\n\r\n        emit PembayaranBerhasil(_nim, msg.value);\r\n    }\r\n\r\n    function cekStatusPembayaran(string memory _nim) public view returns (bool) {\r\n        return pembayaranMahasiswa[_nim].lunas;\r\n    }\r\n\r\n    function tarikDana() public onlyAdmin {\r\n        payable(admin).transfer(address(this).balance);\r\n    }\r\n    \r\n    receive() external payable {}\r\n}\r\n",
  "sourcePath": "D:\\blockchain\\Tugas_akhir\\contracts\\krs.sol",
  "compiler": {
    "name": "solc",
    "version": "0.8.19+commit.7dd6d404.Emscripten.clang"
  },
  "schemaVersion": "3.4.16",
  "updatedAt": "2025-01-31T15:51:50.799Z",
  "networkType": "ethereum",
  "devdoc": {
    "kind": "dev",
    "methods": {},
    "version": 1
  },
  "userdoc": {
    "kind": "user",
    "methods": {},
    "version": 1
  }
}